:100000000C9462000C948A000C948A000C948A0070
:100010000C948A000C948A000C948A000C948A0038
:100020000C948A000C948A000C948A000C948A0028
:100030000C948A000C948A000C948A000C948A0018
:100040000C9435030C948A000C9497090C94710954
:100050000C948A000C948A000C948A000C948A00F8
:100060000C947F030C948A000000000023002600FB
:10007000290000000008000201000003040700003E
:1000800000000000000000000000250028002B00F8
:1000900000000000240027002A00040404040404D3
:1000A0000404020202020202030303030303010227
:1000B00004081020408001020408102001020408F6
:1000C0001020C90911241FBECFEFD8E0DEBFCDBF7D
:1000D00011E0A0E0B1E0E6E8FFE102C005900D927A
:1000E000A838B107D9F723E0A8E8B1E001C01D9214
:1000F000A531B207E1F710E0C2E6D0E004C02197D5
:10010000FE010E94DE0CC136D107C9F70E94280A01
:100110000C94C10F0C9400003FB7F8948091F40147
:100120009091F501A091F601B091F70126B5A89B39
:1001300005C02F3F19F00196A11DB11D3FBFBA2F79
:10014000A92F982F8827820F911DA11DB11DBC01D9
:10015000CD0142E0660F771F881F991F4A95D1F79E
:10016000089585ED8093BC008091BC0084FDFCCF98
:100170001092230208954091AA01262F30E0240F07
:10018000311D21323105DCF4209123022430C9F4E1
:10019000FC0180E090E0861758F43091AA0121918B
:1001A000DC01A857BE4FA30FB11D2C930196F3CFCE
:1001B0008091AA01680F6093AA0180E0089581E010
:1001C000089582E008950895E091FC018091FB017B
:1001D000E81730F4F0E0E153FE4F808190E008959D
:1001E0008FEF9FEF08959091FC018091FB0198178C
:1001F00050F4E92FF0E0E153FE4F208130E09F5FA3
:100200009093FC0102C02FEF3FEFC9010895809148
:10021000FB0190E02091FC01821B91090895CF928F
:10022000DF92EF92FF920F931F93CF93DF937C01A6
:10023000262F972F8A0180912402882391F0C62FC0
:10024000D72F6E01C40ED51ECC15DD0571F0699156
:10025000D701ED91FC910190F081E02DC701099546
:10026000F3CF642F822F0E94BB00C801DF91CF9192
:100270001F910F91FF90EF90DF90CF900895CF9353
:10028000DF931F92CDB7DEB769832091240222232A
:10029000D1F020914702203240F021E030E0FC0113
:1002A0003383228380E090E015C080912502E82FFF
:1002B000F0E0EA5DFD4F998190838F5F8093250286
:1002C0008093470205C061E0CE0101960E94BB0009
:1002D00081E090E00F90DF91CF91089521E001C07F
:1002E000220F6A95EAF7DC011C962C931C971A964C
:1002F0005C934E931997ED91FC910484F585E02D64
:1003000060E00994DC01ED91FC910684F785E02D15
:1003100041E0099581E090E00895089508950895D9
:1003200080E090E00895FC0123812223B9F09181BF
:10033000909569236083828191E090932402809359
:100340004602109225021092470288E492E00E9431
:100350003F010E94A308282F30E002C020E030E0D7
:1003600081E090E0232B11F080E090E00895EF927F
:10037000FF920F931F93CF938C01FC01759684E03D
:10038000C0E060FF02C09081C92B66958150319614
:100390008111F7CF413011F4F8014489F8018585C6
:1003A000C82BC42B7801FEE0EF0EF11CF801628926
:1003B0006C2BC7010E949301F801628960956C2340
:1003C000C701CF911F910F91FF90EF900C94930173
:1003D0000F931F93CF93DF93062F0F70423019F4C2
:1003E00040E0602F10C0142F262FEC0130E0B9013F
:1003F00084E0759567958A95E1F7CE010E94B70173
:10040000412F602FCE01DF91CF911F910F910C945E
:10041000B701FC0184858823A9F021853285211547
:10042000310519F4611106C007C02130310521F4EE
:10043000611102C0858701C015866585CF010E96C2
:100440000C9493010895CF92DF92EF92FF920F9355
:100450001F93CF93DF93EC0181E08093240288E621
:1004600080934602109225021092470260E088E4D1
:1004700092E00E943F010E94A30880912302811113
:10048000FCCF81E080932302809322029FEF909320
:1004900021021092200296E090931F028093FE01A9
:1004A0008091FE01806D8093FE018091FD0181307D
:1004B00061F41092FD018091FE018093BB00809158
:1004C000BC0083FDF8CF85EC01C085EE8093BC00B5
:1004D000809123028130E1F380912002873018F46B
:1004E0008091200201C087E0AFEFB1E02FEC31E056
:1004F000F9019E2F921B981718F49D919193F9CFB3
:100500001092FC018093FB0188E492E00E94F300CA
:100510008F77982F92959F701AEF082F919F000D5B
:10052000112488E492E00E94F3009C01332794E0B8
:10053000359527959A95E1F7F82E129FF00C112426
:1005400088E492E00E94F3009C01332744E0359553
:1005500027954A95E1F7E82E129FE00C112488E4D4
:1005600092E00E94F30088E492E00E94F3009C0174
:10057000332754E0359527955A95E1F7D82E129FE9
:10058000D00C112488E492E00E94F3009C013327F0
:1005900064E0359527956A95E1F7C82E129FC00C47
:1005A000112488E492E00E94F3009C01332774E058
:1005B000359527957A95E1F7129F800D1124888350
:1005C000C982DA82EB82FC820D83CE01DF91CF916A
:1005D0001F910F91FF90EF90DF90CF9008958F9231
:1005E0009F92AF92BF92CF92DF92EF92FF926B01F8
:1005F0007C010E948C004B015C01C114D104E10418
:10060000F104F1F00E948C00DC01CB0188199909FA
:10061000AA09BB09883E9340A105B10570F321E00A
:10062000C21AD108E108F10888EE880E83E0981E0E
:10063000A11CB11CC114D104E104F10419F7DDCFF0
:10064000FF90EF90DF90CF90BF90AF909F908F90F2
:1006500008952FB7F8946091F0017091F1018091A5
:10066000F2019091F3012FBF08951F920F920FB6E0
:100670000F9211242F933F938F939F93AF93BF9328
:100680008091F0019091F101A091F201B091F301FC
:100690003091EF0123E0230F2D3720F40196A11DA7
:1006A000B11D05C026E8230F0296A11DB11D2093A0
:1006B000EF018093F0019093F101A093F201B093C8
:1006C000F3018091F4019091F501A091F601B091B0
:1006D000F7010196A11DB11D8093F4019093F501DE
:1006E000A093F601B093F701BF91AF919F918F91C5
:1006F0003F912F910F900FBE0F901F9018951F9252
:100700000F920FB60F9211242F933F934F935F9345
:100710006F937F938F939F93AF93BF93EF93FF93C9
:100720008091B900887F803609F49CC068F58832D2
:1007300009F45BC090F4803109F454C038F4882384
:1007400009F4F6C0883009F44DC0F6C0883109F4C8
:100750004CC0803209F45DC0EFC0803409F468C039
:1007600048F4803309F455C0883309F0E5C080931C
:100770002102D8C0803509F44FC0883509F45DC026
:10078000883409F0D9C0D6C0883909F4C7C0A8F4A4
:10079000883709F467C038F4883609F463C08037B5
:1007A00009F460C0C9C0883809F4B8C0803909F4B8
:1007B0005FC0803809F0C0C05BC0803B09F486C0D0
:1007C00038F4803A09F466C0883A09F47FC0B4C0AE
:1007D000803C09F4A7C0883C09F4A4C0883B09F414
:1007E0008AC0AAC08091FE0110C090912002809121
:1007F0001F02981770F5E091200281E08E0F809320
:100800002002F0E0E150FE4F80818093BB0085EC38
:1008100086C0809321028EC0E091200281E08E0F7D
:10082000809320028091BB00F0E0E150FE4F808376
:100830009091200280911F026EC0E091200281E021
:100840008E0F809320028091BB00F0E0E150FE4FBC
:1008500080838091220281116DC081E08093FD012F
:1008600084EA61C083E0809323021092CE01CFCF4F
:100870008091CE01803208F051C0E091CE0181E03C
:100880008E0F8093CE018091BB00F0E0E255FE4FC9
:100890008083BDCF85EC8093BC00109223028091B1
:1008A000CE01803230F4E091CE01F0E0E255FE4F0F
:1008B00010826091CE0170E0E091AC01F091AD0149
:1008C0008EEA91E009951092CE0136C084E08093C3
:1008D00023021092AB011092AA01E091A801F091BD
:1008E000A90109958091AA01811105C081E0809339
:1008F000AA0110928801E091AB0181E08E0F8093F4
:10090000AB01F0E0E857FE4F80818093BB009091EF
:10091000AB018091AA01981708F479CF85E88093FC
:10092000BC000AC085EC8093BC001092230204C076
:10093000109221020E94B100FF91EF91BF91AF91FF
:100940009F918F917F916F915F914F913F912F91E7
:100950000F900FBE0F901F901895DC01ED91FC9148
:100960000684F785E02D40E0099461E00E94AD0423
:100970008BE39FE10197F1F708950F931F93CF93B6
:10098000DF93EC01423018F08C8188608C834F83B8
:100990006887222329F0413019F48C8184608C838C
:1009A00064E670E080E090E00E94EF026C8164FDFC
:1009B00031C0E881F9810684F785E02D42E063E0EB
:1009C000CE0109958BE496E40197F1F7E881F9816E
:1009D0000684F785E02D42E063E0CE01099503E54A
:1009E00012E0C8010197F1F7E881F9810684F785E3
:1009F000E02D42E063E0CE010995C8010197F1F7CF
:100A0000E881F9810684F785E02D42E062E0CE01BD
:100A1000099517C06062CE010E94AD048BE496E494
:100A20000197F1F76C816062CE010E94AD0403E58D
:100A300012E0C8010197F1F76C816062CE010E945B
:100A4000AD04C8010197F1F76C816062CE010E948C
:100A5000AD048BEE90E00197F1F784E08D836CE0BC
:100A6000CE010E94AD04CE010E94B50482E08E83C7
:100A700066E0CE010E94AD04E881F9810484F58529
:100A8000E02D6FEFCE01DF91CF911F910F9109946F
:100A9000FF920F931F93CF93DF93EC01162F042F38
:100AA000F22E8B85888B0E940009888991E09093B3
:100AB00024028093460210922502109247020E945F
:100AC000A30891E0811190E0998B992329F088E4A3
:100AD00092E00E94F3008E878989882339F01F866F
:100AE0001C8260E0CE010E960E9493012F2D402FB4
:100AF000612FCE01DF91CF911F910F91FF900C9448
:100B0000BD040F931F93CF93DF93CDB7DEB76497E8
:100B10000FB6F894DEBF0FBECDBFCE010F960E9478
:100B200023028C891F928F938B891F928F938A89BE
:100B30001F928F938DE391E09F938F938E010F5FB0
:100B40001F4F1F930F930E94E90C61E086E00E9403
:100B50006908B80184E592E00E946F090FB6F89425
:100B6000DEBF0FBECDBF64960FB6F894DEBF0FBEDA
:100B7000CDBFDF91CF911F910F910895FF920F93F9
:100B80001F93CF93DF93CDB7DEB727970FB6F894B7
:100B9000DEBF0FBECDBF282FCE0101962F830E944E
:100BA00023020C811D812F81213049F41F5F1C33EA
:100BB00048F00F5F10E0083128F000E003C0223059
:100BC00009F4115081E08093240288E68093460264
:100BD000109225021092470260E088E492E00E94A1
:100BE0003F0160E088E492E00E943F018AE0F82E35
:100BF000812F6F2D0E94B00C682F660F860F880F13
:100C0000682F610F88E492E00E943F01802F6F2DD2
:100C10000E94B00C682F660F680F660F600F88E4A3
:100C200092E00E943F0160E088E492E00E943F0170
:100C300060E088E492E00E943F0160E088E492E096
:100C40000E943F0160E088E492E00E943F010E9420
:100C5000A3086CE271E080E090E00E94EF020E9445
:100C6000810527960FB6F894DEBF0FBECDBFDF918A
:100C7000CF911F910F91FF90089581114EC084E58F
:100C800092E00E94B50460E088E00E94690860E09C
:100C900071E084E592E00E946F0962E084E00E94C6
:100CA00069086CE471E084E592E00E946F0963E0FA
:100CB00084E00E94690861E571E084E592E00E94A9
:100CC0006F0962E08CE00E94690866E571E084E5E6
:100CD00092E00E946F0963E08CE00E9469086BE576
:100CE00071E084E592E00E946F096091F801623042
:100CF00018F46E5F82E001C08AE00E9469084091AA
:100D0000F80150E060E070E02AE084E592E00E94A3
:100D1000260981E08093FA0112C0813059F484E5FC
:100D200092E00E94B5041092F9011092F80110921D
:100D3000FA010895823029F48091F801865F80934A
:100D4000F9010895CF93DF9390E0FC01E255FF4F46
:100D50002491FC01E656FF4F84918823C1F090E076
:100D6000880F991FFC01E057FF4FC591D491FC01FA
:100D7000EA57FF4FA591B4919FB7F8943881822F1D
:100D8000809583238883EC91E22BEC939FBFDF91C6
:100D9000CF910895CF92DF92EF92FF920F931F931E
:100DA000CF93DF936C017A018B01C0E0D0E0CE15C8
:100DB000DF0589F0D8016D918D01D601ED91FC918F
:100DC0000190F081E02DC6010995892B11F47E0177
:100DD00002C02196ECCFC701DF91CF911F910F91F7
:100DE000FF90EF90DF90CF900895FC01538D448DDC
:100DF000252F30E0842F90E0821B930B541710F0C6
:100E0000CF96089501970895FC01918D828D9817D2
:100E100061F0828DDF01A80FB11D5D968C91928DDE
:100E20009F5F9F73928F90E008958FEF9FEF0895DB
:100E3000FC01918D828D981731F0828DE80FF11DA4
:100E4000858D90E008958FEF9FEF0895FC01918DBF
:100E5000228D892F90E0805C9F4F821B91098F73B8
:100E60009927089588E792E00E94260721E0892BC0
:100E700009F420E0822F0895FC01848DDF01A80F82
:100E8000B11DA35ABF4F2C91848D90E001968F73B2
:100E90009927848FA689B7892C93A089B1898C91D1
:100EA00080648C93938D848D981306C00288F38997
:100EB000E02D80818F7D80830895EF92FF920F93C4
:100EC0001F93CF93DF93EC0181E0888F9B8D8C8DF6
:100ED000981305C0E889F989808185FD24C0F62E24
:100EE0000B8D10E00F5F1F4F0F731127E02E8C8DBD
:100EF000E8120CC00FB607FCFACFE889F9898081A7
:100F000085FFF5CFCE010E943C07F1CF8B8DFE010E
:100F1000E80FF11DE35AFF4FF0820B8FEA89FB893E
:100F20008081806207C0EE89FF896083E889F98942
:100F300080818064808381E090E0DF91CF911F9178
:100F40000F91FF90EF900895CF93DF93EC01888D80
:100F50008823C9F0EA89FB89808185FD05C0A889BD
:100F6000B9898C9186FD0FC00FB607FCF5CF808143
:100F700085FFF2CFA889B9898C9185FFEDCFCE018D
:100F80000E943C07E7CFDF91CF91089580E090E089
:100F9000892B29F00E94320781110C9400000895DA
:100FA000833081F028F4813099F08230A1F00895E7
:100FB0008730A9F08830B9F08430D1F48091800076
:100FC0008F7D03C0809180008F778093800008958B
:100FD00084B58F7702C084B58F7D84BD08958091DC
:100FE000B0008F7703C08091B0008F7D8093B000F8
:100FF0000895CF93DF93282F30E0F901EE58FF4F8B
:101000008491F901E255FF4FD491F901E656FF4F63
:10101000C491CC2391F081110E94D007EC2FF0E015
:10102000EE0FFF1FE859FF4FA591B491EC91ED230E
:1010300081E090E021F480E002C080E090E0DF9168
:10104000CF9108951F93CF93DF93282F30E0F901BC
:10105000EE58FF4F8491F901E255FF4FD491F90109
:10106000E656FF4FC491CC23C9F0162F81110E9480
:10107000D007EC2FF0E0EE0FFF1FEA57FF4FA591CE
:10108000B4918FB7F894111105C09C91ED2FE095A4
:10109000E92302C0EC91ED2BEC938FBFDF91CF9150
:1010A0001F9108950E94E40C6115710579F0FB0110
:1010B00001900020E9F73197AF01461B570BDC0187
:1010C000ED91FC910280F381E02D099480E090E0A5
:1010D0000895CF93DF93CDB7DEB728970FB6F89476
:1010E000DEBF0FBECDBF1D8290E49E8324E12F831F
:1010F00024E5288719829A8390E19B8390E59C835D
:1011000090915B02691710F06FEF690F40915C02DC
:10111000262F30E0FE01E20FF31F403121F494301E
:1011200011F4918101C09581682F690F606884E591
:1011300092E028960FB6F894DEBF0FBECDBFDF91C8
:10114000CF910C94AD042091470290914602213238
:1011500008F04AC0809123028111FCCF32E0309325
:10116000230231E0309322023FEF309321021092AC
:10117000200220931F02A6E2B2E04FEF51E0FA01F5
:101180003E2F341B321718F43D913193F9CF109252
:10119000FE012091FE01990F922B9093FE019091F8
:1011A000FD01913061F41092FD019091FE01909348
:1011B000BB009091BC0093FDF8CF95EC01C095EE7B
:1011C0009093BC00909123029230E1F39091210220
:1011D0009F3F79F080912102803241F0809121027D
:1011E000803331F084E005C081E003C082E001C0BB
:1011F00083E0109225021092470210922402089573
:101200001092FC011092FB011092250210924702ED
:101210001092230281E0809322021092FD0161E08E
:1012200082E10E94220861E083E10E942208E9EB4A
:10123000F0E080818E7F808380818D7F808388E451
:101240008093B80085E48093BC0008954F925F922C
:101250006F927F92EF92FF920F931F93CF93DF9342
:10126000CDB7DEB7A1970FB6F894DEBF0FBECDBFE6
:101270007C01FA01CB0119A2223008F42AE08E0188
:101280000F5D1F4F422E512C612C712CBF01A30109
:1012900092010E94BC0CF901CA01015011096A3087
:1012A00014F4605D01C0695CD8016C93232B242B7E
:1012B000252B61F7B801C7010E945408A1960FB60B
:1012C000F894DEBF0FBECDBFDF91CF911F910F917C
:1012D000FF90EF907F906F905F904F9008950C94E7
:1012E00054081F920F920FB60F9211242F933F9321
:1012F0004F935F936F937F938F939F93AF93BF931E
:10130000EF93FF9388E792E00E943C07FF91EF91F3
:10131000BF91AF919F918F917F916F915F914F910D
:101320003F912F910F900FBE0F901F9018951F9215
:101330000F920FB60F9211242F938F939F93EF93D9
:10134000FF93E0918802F09189028081E0918E0202
:10135000F0918F0282FD12C09081809191028F5F87
:101360008F7320919202821751F0E0919102F0E088
:10137000E858FD4F958F8093910201C08081FF91C5
:10138000EF919F918F912F910F900FBE0F901F9013
:101390001895E8E7F2E01382128288EE93E0A0E06D
:1013A000B0E084839583A683B78329E031E031835D
:1013B000208325EC30E03587248724EC30E0378724
:1013C000268720EC30E0318B208B21EC30E0338B12
:1013D000228B22EC30E0358B248B26EC30E0378BEF
:1013E000268B118E128E138E148EE8E4F2E0138297
:1013F000128284839583A683B7838BE191E09183E6
:101400008083E4E5F2E0138212828DE291E0918321
:101410008083108A8FEF87871686118A8FE38387F0
:10142000148615861286118684E0828B82E0838B77
:1014300081E0848B80E1858B80E2868B80E4878BE2
:1014400080E8808F40E050E063E0CF010C946E01B3
:10145000789484B5826084BD84B5816084BD85B58F
:10146000826085BD85B5816085BD80916E0081609B
:1014700080936E0010928100809181008260809341
:101480008100809181008160809381008091800043
:101490008160809380008091B10084608093B1006E
:1014A0008091B00081608093B00080917A00846068
:1014B00080937A0080917A00826080937A00809194
:1014C0007A00816080937A0080917A0080688093AE
:1014D0007A001092C100E0918802F091890282E0C6
:1014E0008083E0918402F09185021082E09186026F
:1014F000F09187028FEC808310929002E0918C0231
:10150000F0918D0286E08083E0918A02F0918B0257
:10151000808180618083E0918A02F0918B028081DA
:1015200088608083E0918A02F0918B0280818068DC
:101530008083E0918A02F0918B0280818F7D80838D
:1015400020E044E064E184E592E00E9448050E94C6
:1015500000090E9400090E942903DC01CB01805D83
:101560009A48AF4FBF4F80936E0290936F02A09343
:101570007002B093710288E00E94A20689E00E9486
:10158000A2068AE00E94A2068BE00E94A2061092A8
:101590006D02D1E012E004E083E0F82E10927702B1
:1015A0000E9429034B015C016093730270937402E3
:1015B00080937502909376028AE00E94F907D82EF4
:1015C0008BE00E94F907E82E88E00E94F907C82FF7
:1015D00089E00E94F907D11002C0D0937702E11090
:1015E00002C010937702C11107C0F09277028111F7
:1015F0000AC00093770202C08823D9F3C091770212
:10160000CC2381F001C0C3E08091720281110AC035
:10161000D0937202C093FA0168EC70E080E090E031
:101620000E94EF0280916E0290916F02A091700271
:10163000B091710288159905AA05BB05E8F480915F
:101640006D02811119C0C11117C060E084E592E0FC
:101650000E940902D0936D02609159026B7F6093E2
:101660005902686084E592E00E94AD0465E070E094
:1016700080E090E00E94EF0280916D02882391F15A
:1016800080917702843071F50E942903DC01CB013F
:10169000805D9A48AF4FBF4F80936E0290936F0268
:1016A000A0937002B093710261E084E592E00E9421
:1016B000090210926D0260915902862F8460809316
:1016C00059026C6084E592E00E94AD041092F90129
:1016D0001092FA011092720265E070E080E090E0F2
:1016E0000E94EF024091F90150E060E070E02AE0D2
:1016F00088E792E00E94260960E671E088E792E0C0
:101700000E946F09409173025091740260917502BA
:10171000709176022AE088E792E00E94260960E64E
:1017200071E088E792E00E946F0940916E0250914B
:101730006F0260917002709171022AE088E792E076
:101740000E94260962E671E088E792E00E94540850
:101750008091F901811134C060E083E00E94690842
:1017600065E671E084E592E00E946F090E948105C0
:1017700062E081E00E94690864E771E084E592E03C
:101780000E946F0963E081E00E9469086BE771E0E5
:1017900084E592E00E946F0962E08AE00E94690895
:1017A0006FE771E084E592E00E946F0963E08AE0F0
:1017B0000E94690863E871E084E592E00E946F0985
:1017C0008091FA01813011F5809172028823F1F045
:1017D0008091F90181110AC00E943D066AE070E023
:1017E00080E090E00E94EF02109272020E942903B2
:1017F000DC01CB01805D9A48AF4FBF4F80936E02F2
:1018000090936F02A0937002B0937102809177025F
:10181000813029F580917202882309F18091F901C4
:10182000813011F08A3059F481E00E943D066AE06F
:1018300070E080E090E00E94EF02109272020E943D
:101840002903DC01CB01805D9A48AF4FBF4F8093E5
:101850006E0290936F02A0937002B0937102809118
:1018600077028230E1F5809172028823C1F1809184
:10187000F9018130A9F48091F8018F5F843018F468
:101880008093F80102C01092F80180E00E943D06AA
:101890006AE070E080E090E00E94EF021092720235
:1018A0008091F9018A3059F481E00E94BE056AE016
:1018B00070E080E090E00E94EF02109272020E94BD
:1018C0002903DC01CB01805D9A48AF4FBF4F809365
:1018D0006E0290936F02A0937002B0937102809198
:1018E0007702833019F5809172028823F9F0809194
:1018F000F9018A3059F482E00E94BE056AE070E086
:1019000080E090E00E94EF02109272020E94290390
:10191000DC01CB01805D9A48AF4FBF4F80936E02D0
:1019200090936F02A0937002B0937102809177023E
:10193000843099F480917202882379F08091F901C2
:10194000813059F482E00E943D066AE070E080E058
:1019500090E00E94EF02109272020E94C6071ECE13
:10196000991B79E004C0991F961708F0961B881FF1
:101970007A95C9F780950895A1E21A2EAA1BBB1B80
:10198000FD010DC0AA1FBB1FEE1FFF1FA217B3074B
:10199000E407F50720F0A21BB30BE40BF50B661F61
:1019A000771F881F991F1A9469F760957095809525
:1019B00090959B01AC01BD01CF010895EE0FFF1F73
:1019C0000590F491E02D099481E090E0F8940C9456
:1019D000C10FAEE0B0E0EFEEFCE00C94980F0D8983
:1019E0001E8986E08C831A8309838FEF9FE79E838D
:1019F0008D83AE01475E5F4F6F89788DCE01019672
:101A00000E940C0D2F813885F801E20FF31F108220
:101A10002E96E4E00C94B40FACE0B0E0E2E1FDE01F
:101A20000C948A0F7C016B018A01FC0117821682DB
:101A3000838181FFBDC1CE0101964C01F7019381E5
:101A4000F60193FD859193FF81916F01882309F43D
:101A5000ABC1853239F493FD859193FF81916F017C
:101A6000853229F4B70190E00E94F40EE7CF512CA3
:101A7000312C20E02032A0F48B3269F030F4803237
:101A800059F0833269F420612CC08D3239F08033F3
:101A900039F4216026C02260246023C0286021C060
:101AA00027FD27C030ED380F3A3078F426FF06C006
:101AB000FAE05F9E300D1124532E13C08AE0389E49
:101AC000300D1124332E20620CC08E3221F426FDFD
:101AD0006BC1206406C08C3611F4206802C08836C1
:101AE00041F4F60193FD859193FF81916F0181117E
:101AF000C1CF982F9F7D9554933028F40C5F1F4FD2
:101B0000FFE3F9830DC0833631F0833771F08335FD
:101B100009F05BC022C0F801808189830E5F1F4FEE
:101B200044244394512C540115C03801F2E06F0E47
:101B3000711CF801A080B18026FF03C0652D70E004
:101B400002C06FEF7FEFC5012C870E94E90E2C01C8
:101B500083012C852F77222E17C03801F2E06F0EFB
:101B6000711CF801A080B18026FF03C0652D70E0D4
:101B700002C06FEF7FEFC5012C870E94DE0E2C01A3
:101B80002C852068222E830123FC1BC0832D90E02E
:101B900048165906B0F4B70180E290E00E94F40EB6
:101BA0003A94F4CFF50127FC859127FE81915F01DE
:101BB000B70190E00E94F40E31103A94F1E04F1A10
:101BC00051084114510471F7E5C0843611F089368B
:101BD00039F5F80127FF07C0608171818281938107
:101BE0000C5F1F4F08C060817181072E000C880BAD
:101BF000990B0E5F1F4F2F76722E97FF09C090959D
:101C00008095709561957F4F8F4F9F4F2068722E02
:101C10002AE030E0A4010E942C0FA82EA81844C08E
:101C2000853729F42F7EB22E2AE030E025C0F22F2E
:101C3000F97FBF2E8F36C1F018F4883579F0B4C023
:101C4000803719F0883721F0AFC02F2F2061B22ED6
:101C5000B4FE0DC08B2D8460B82E09C024FF0AC0CD
:101C60009F2F9660B92E06C028E030E005C020E125
:101C700030E002C020E132E0F801B7FE07C0608129
:101C80007181828193810C5F1F4F06C060817181D9
:101C900080E090E00E5F1F4FA4010E942C0FA82E41
:101CA000A818FB2DFF777F2E76FE0BC0372D3E7FC9
:101CB000A51450F474FE0AC072FC08C0372D3E7E95
:101CC00005C0BA2C372D03C0BA2C01C0B52C34FF87
:101CD0000DC0FE01EA0DF11D8081803311F4397EC3
:101CE00009C032FF06C0B394B39404C0832F867832
:101CF00009F0B39433FD13C030FF06C05A2CB3145F
:101D000018F4530C5B18B32CB31468F4B70180E2D9
:101D100090E03C870E94F40EB3943C85F5CFB31459
:101D200010F43B1801C0312C34FF12C0B70180E31E
:101D300090E03C870E94F40E3C8532FF17C031FDD5
:101D400003C088E790E002C088E590E0B7010CC0CE
:101D5000832F867859F031FF02C08BE201C080E208
:101D600037FD8DE2B70190E00E94F40EA51438F41F
:101D7000B70180E390E00E94F40E5A94F7CFAA9442
:101D8000F401EA0DF11D8081B70190E00E94F40E8C
:101D9000A110F5CF332009F451CEB70180E290E0D5
:101DA0000E94F40E3A94F6CFF7018681978102C023
:101DB0008FEF9FEF2C96E2E10C94A60FFC010590AB
:101DC000615070400110D8F7809590958E0F9F1F3D
:101DD0000895FC016150704001900110D8F7809582
:101DE00090958E0F9F1F08950F931F93CF93DF93AE
:101DF000FB01238121FD03C08FEF9FEF28C022FF4D
:101E000016C046815781248135814217530744F417
:101E1000A081B1819D012F5F3F4F318320838C933F
:101E2000268137812F5F3F4F3783268310C0EB0118
:101E3000092F182F0084F185E02D0995892BE1F6F3
:101E40008E819F8101969F838E83812F902FDF91BA
:101E5000CF911F910F910895FA01AA27283051F1CF
:101E6000203181F1E8946F936E7F6E5F7F4F8F4FCB
:101E70009F4FAF4FB1E03ED0B4E03CD0670F781F2A
:101E8000891F9A1FA11D680F791F8A1F911DA11D0F
:101E90006A0F711D811D911DA11D20D009F4689448
:101EA0003F912AE0269F11243019305D3193DEF6F0
:101EB000CF010895462F4770405D4193B3E00FD0A6
:101EC000C9F7F6CF462F4F70405D4A3318F0495D91
:101ED00031FD4052419302D0A9F7EACFB4E0A69574
:101EE0009795879577956795BA95C9F70097610596
:101EF000710508959B01AC010A2E069457954795EC
:101F000037952795BA95C9F7620F731F841F951FE0
:101F1000A01D08952F923F924F925F926F927F92F1
:101F20008F929F92AF92BF92CF92DF92EF92FF92E9
:101F30000F931F93CF93DF93CDB7DEB7CA1BDB0B95
:101F40000FB6F894DEBF0FBECDBF09942A8839883A
:101F500048885F846E847D848C849B84AA84B98441
:101F6000C884DF80EE80FD800C811B81AA81B9814D
:101F7000CE0FD11D0FB6F894DEBF0FBECDBFED0161
:061F80000895F894FFCF64
:101F86004D656E7500000000005D07CA06F506A4E3
:101F960007260704071807000000003F010F0190FD
:101FA60001E3000701F300E400000000008201CA1B
:101FB6000690018F0148056E010902E801253032BD
:101FC600643A253032643A2530326400437A6173CC
:101FD60000574C656400424C656400524C656400D1
:101FE6003A000D0A004B6F6E74726F6C657220209A
:101FF6004C45440031204D656E750032202B003370
:08200600202D0034204F4B0097
:107E0000112484B714BE81FFF0D085E080938100F7
:107E100082E08093C00088E18093C10086E0809377
:107E2000C20080E18093C4008EE0C9D0259A86E02C
:107E300020E33CEF91E0309385002093840096BBD3
:107E4000B09BFECF1D9AA8958150A9F7CC24DD24C4
:107E500088248394B5E0AB2EA1E19A2EF3E0BF2EE7
:107E6000A2D0813461F49FD0082FAFD0023811F036
:107E7000013811F484E001C083E08DD089C08234E0
:107E800011F484E103C0853419F485E0A6D080C0E4
:107E9000853579F488D0E82EFF2485D0082F10E0AE
:107EA000102F00270E291F29000F111F8ED06801E7
:107EB0006FC0863521F484E090D080E0DECF843638
:107EC00009F040C070D06FD0082F6DD080E0C81688
:107ED00080E7D80618F4F601B7BEE895C0E0D1E017
:107EE00062D089930C17E1F7F0E0CF16F0E7DF06D8
:107EF00018F0F601B7BEE89568D007B600FCFDCFD4
:107F0000A601A0E0B1E02C9130E011968C91119780
:107F100090E0982F8827822B932B1296FA010C0160
:107F200087BEE89511244E5F5F4FF1E0A038BF0790
:107F300051F7F601A7BEE89507B600FCFDCF97BE46
:107F4000E89526C08437B1F42ED02DD0F82E2BD052
:107F50003CD0F601EF2C8F010F5F1F4F84911BD097
:107F6000EA94F801C1F70894C11CD11CFA94CF0C13
:107F7000D11C0EC0853739F428D08EE10CD085E9AC
:107F80000AD08FE07ACF813511F488E018D01DD067
:107F900080E101D065CF982F8091C00085FFFCCF94
:107FA0009093C60008958091C00087FFFCCF809118
:107FB000C00084FD01C0A8958091C6000895E0E648
:107FC000F0E098E1908380830895EDDF803219F02E
:107FD00088E0F5DFFFCF84E1DECF1F93182FE3DFCA
:107FE0001150E9F7F2DF1F91089580E0E8DFEE27F6
:047FF000FF270994CA
:027FFE00040479
:0400000300007E007B
:00000001FF
